:020000040800F2
:10000000709700209D010008DF2100087F11000883
:10001000DD2100082B070008492800080000000027
:100020000000000000000000000000006122000845
:100030006507000800000000E1210008FF22000819
:10004000B7010008B7010008B7010008B7010008B0
:10005000B7010008B7010008B7010008B7010008A0
:10006000B7010008B7010008B7010008B701000890
:10007000B7010008B7010008B7010008B701000880
:10008000B7010008B7010008B7010008B701000870
:10009000B7010008B7010008B7010008B701000860
:1000A000B7010008B7010008B7010008B701000850
:1000B000B7010008B7010008B7010008B701000840
:1000C000B7010008B7010008B7010008B701000830
:1000D000B7010008B7010008B7010008B701000820
:1000E000B7010008B7010008B7010008B701000810
:1000F000B7010008B7010008B7010008B701000800
:10010000B7010008B7010008B7010008B7010008EF
:10011000B7010008B7010008B7010008B7010008DF
:10012000B7010008B7010008B7010008B7010008CF
:10013000B7010008B7010008B7010008B7010008BF
:10014000B7010008B7010008B7010008B7010008AF
:10015000B7010008B7010008B7010008B70100089F
:10016000B7010008B7010008B7010008B70100088F
:10017000B7010008B7010008B7010008000000003F
:10018000B7010008B7010008DFF80CD000F024FA2E
:1001900000480047E548000870970020064880475F
:1001A00006480047FEE7FEE7FEE7FEE7FEE7FEE75C
:1001B000FEE7FEE7FEE7FEE7752300088901000879
:1001C0002DE9F05F0546002092469B46884606468C
:1001D000814640241BE0284641464746224600F01F
:1001E0003CF953465A46C01A914110D3114618465D
:1001F000224600F023F92D1A67EB01084F462246EC
:100200000120002100F01AF917EB00094E41201ED1
:10021000A4F10104DFDC484631462A464346BDE8E6
:10022000F09F40EA01039B0703D009E008C9121FB1
:1002300008C0042AFAD203E011F8013B00F8013BA0
:10024000521EF9D27047D2B201E000F8012B491ECC
:10025000FBD270470022F6E710B513460A46044663
:100260001946FFF7F0FF204610BD30B504460020C8
:10027000034600E05B1C934203D2E05CCD5C401B74
:10028000F8D030BD2DE9FE4F81EA030404F00044AC
:1002900021F0004100944FF0000B23F0004350EA9E
:1002A00001045ED052EA03045BD0C3F30A54C1F3E5
:1002B0000A552C44A4F2F3340194A0FB0254C1F378
:1002C000130141F48011C3F3130343F4801301FBC2
:1002D000024400FB034E840A970A44EA815447EA29
:1002E0008357A4FB076802958D0A05FB07854FEA33
:1002F000932C04FB0C542705029D4FEA065847EA4D
:100300001637B5EB08056EEB070C870E920E47EA21
:10031000811742EA8312A7FB0201B6EB0B0164EBE3
:1003200000042B0D43EA0C335E1844EB1C50DA46F4
:100330005146E7FB0201C5F313044FEA0B3343EACE
:1003400014534FEA0432019C43EA0603A4F10C045F
:100350000294009CCDE900B400F09EF803B0BDE823
:10036000F08F00200146F9E70EB540F233410291CB
:100370000021CDE900110A460B4600F08DF803B0CC
:1003800000BDC1F30A5210B5C1F3130140F2FF33AF
:1003900041F480119A4201DA002010BD40F233434B
:1003A0009A42A2F2334203DC524200F056F810BDEA
:1003B000904010BD00F0004230F000400AD0C10D66
:1003C00001F56071C0F3160042EA0151C20840070E
:1003D00011437047002001467047000030B5041EED
:1003E00071F1000404DB4FF00044404264EB010172
:1003F000141E73F1000405DB1C464FF0004352420B
:1004000063EB04038B4208BF824230BD30B5041E4B
:1004100071F1000404DB4FF00044404264EB010141
:10042000141E73F1000405DB1C464FF000435242DA
:1004300063EB0403994208BF904230BD202A04DBDD
:10044000203A00FA02F1002070479140C2F12003E7
:1004500020FA03F3194390407047202A04DB203A26
:1004600021FA02F00021704721FA02F3D040C2F1D4
:100470002002914008431946704710B5141E73F1CD
:10048000000408DA401C41F1000192185B411A4354
:1004900001D120F0010010BD2DE9F04D92469B46A0
:1004A00011B1B1FA81F202E0B0FA80F22032904646
:1004B000FFF7C4FF04460F4640EA0A0041EA0B0179
:1004C00053465A46084313D0114653EA010019D047
:1004D000C8F140025046FFF7C0FF05460E465046A1
:1004E00059464246FFF7AAFF084305D0012004E021
:1004F00020463946BDE8F08D0020054346EAE07607
:100500002C4337430A986305E40AA0EB0800002255
:10051000FD0A44EA47540A3002D500200146E9E7C3
:10052000010510196941DDE9084500196941BDE877
:10053000F04DA2E72DE9F04D00231A461B1A8A411F
:1005400003DB00200146BDE8F08DC1F30A52C1F380
:10055000130141F480154FF0000BD10702D10018B0
:100560006D41521E0027044640F2FF11384601EB50
:10057000620A3E468046024600204FF48011FFF793
:100580006CFFC2197141BB1846EB0100B4EB030CC0
:1005900075EB000C04D3E41A65EB000517460E4614
:1005A000241908F101006D4180463428E3DDF91972
:1005B00046EB0600091BA84103D24FF0FF32134659
:1005C00001E0002213461BEB070046EB0A51BDE891
:1005D000F04DFFF752BF0000064C074D06E0E06803
:1005E00040F0010394E8070098471034AC42F6D37A
:1005F000FFF7CEFDA8A00408C8A0040870B58C18A9
:1006000010F8015B15F0070301D110F8013B2A1126
:1006100006D110F8012B03E010F8016B01F8016B13
:100620005B1EF9D12B0705D40023521E0DD401F80F
:10063000013BFAE710F8013BCB1A921C03E013F8D8
:10064000015B01F8015B521EF9D5A142D8D300200D
:1006500070BD00F0B5BD2DE9F0410D46014600200A
:1006600004464E1908E00702301B401E80B200F01D
:1006700007F8641C3844E4B2AC42F4D3BDE8F0811E
:1006800010B5044600F02AFE200AA02101EB40002C
:10069000C0B200F0F3FD00F063FEE0B200F0EEFD4A
:1006A00000F05EFE00F01AFEA12000F0E7FD00F071
:1006B00057FE002000F0AEFD044600F02FFE20465D
:1006C00010BD2DE9F04116460D460746002409E00D
:1006D000E00025FA00F0C1B2381980B200F006F847
:1006E000641CE4B2B442F3D3BDE8F08170B50D46AA
:1006F000044600F0F3FD200AA02101EB4000C0B247
:1007000000F0BCFD00F02CFEE0B200F0B7FD00F000
:1007100027FE284600F0B2FD00F022FE00F0FEFDAC
:10072000BDE870400A2000F0B1B8FEE70948016852
:1007300021F00101016008480121816081680029E0
:10074000FCD10649016000680549884200D0FEE7F7
:1007500070470000002000E000300240C2A507F40E
:10076000CDB5E8B57047000070B5B3F5804F05D042
:100770006FF0704140F82210002070BD50F8224008
:10078000084B8E891C40D1E9003543EA05138D687A
:1007900089692D0245EA06452B430B43234340F864
:1007A0002230E9E70000F0CFF0B50C6850F82430B3
:1007B000114A1340D1E90125D1E903672A433E4399
:1007C00032434E6932438E693243CE6932430E6AF8
:1007D00032434E6A32438E6A3243CE6A3243CE6B24
:1007E000096B32430A431A43082D01D142F04002FB
:1007F00040F824200020F0BD8000F0FF30B500EB71
:10080000820250688D8900F04043D1E9000440EA3B
:1008100004108C68240244EA054420430C8A074DE6
:1008200005EB045420430C7D6D0105EB04648969DC
:100830002043084318435060002030BD0000F0FF03
:1008400010B5040002D0607910B106E0012010BD9F
:1008500000202071204600F005F801206071002082
:1008600010BD000008B500680649884208D1064856
:10087000016841F480510160006800F480500090EC
:1008800008BD0000003002403038024070B5044618
:1008900000F028F90546601C02D0044800780444A2
:1008A00000F020F9401BA042FAD370BD14070020CD
:1008B000F0B587B014216846FFF7CCFC14480168F6
:1008C000002923D1012404601248016841F001018C
:1008D00001600068022500F0010005904FF680706D
:1008E000CDE9000502AA03260C2782E8D00069465C
:1008F000094800F015F84EF2B370CDE9000502AAE0
:10090000694682E8D000054800F00AF807B0F0BD5B
:100910000C0700203838024000100240000C024052
:100920002DE9F84F00224FF0010803254FF00F0E7C
:100930000B6808FA02F42340A3426ED14E68012EE0
:1009400005D0022E03D0112E01D0122E12D18668AE
:100950004FEA420C05FA0CF7BE43CF6807FA0CF7D2
:10096000374387604668A6430C79C4F3001494406B
:1009700034434460C668570005FA07FC8C6826EAD1
:100980000C06BC403443C4604C68022C01D0122CCD
:1009900013D1D40800EB8404A346D4F82090540764
:1009A0004FEAD46A0EFA0AF629EA06090E6906FA2F
:1009B0000AF646EA0906CBF8206006680C7926EAB2
:1009C0000C0604F00304BC40344304604C68E400AB
:1009D00065D5364C266846F480462660246822F0A9
:1009E000030604F480440094314C3444A446D4F803
:1009F00008489607370F0EFA07F6B4432D4EB0425B
:100A000001D1002624E02C4EB04201D101261FE086
:100A10002A4EB04202D102261AE040E0284EB042EF
:100A200001D1032614E0274EB04201D104260FE085
:100A3000254EB04201D105260AE0244EB04201D134
:100A4000062605E0224EB04201D1072600E0082626
:100A5000BE402643CCF808681E4E34684F689C435D
:100A6000FF0300D51C4334601A4C241D26684F68D0
:100A70009E43BF0300D51E432660164E08363468D9
:100A80004F689C43FF0200D51C433460114E0C3666
:100A900034684F689C43BF0200D51C433460521C2D
:100AA000102AFFF445AFBDE8F88F0000443802403B
:100AB00000300140000002400004024000080240F3
:100AC000000C0240001002400014024000180240D6
:100AD000001C0240003C01400AB1816170470904DA
:100AE000FBE7000001488068704700001407002001
:100AF0000248816802781144816070471407002021
:100B00000B4810B5016841F400710160016841F4BF
:100B100080610160016841F480710160032000F090
:100B200061F8002000F006F800F024F8002010BD65
:100B3000003C024070B50D4D04464FF47A712878A0
:100B4000B1FBF0F00A490968B1FBF0F000F003FBDB
:100B500048B9102C07D200222146501E00F022F87E
:100B600000206C6070BD012070BD000014070020E3
:100B7000200700200A4808B5016841F4804101605F
:100B8000006800F4804000900548001F016841F0B3
:100B900080510160006800F08050009008BD0000A6
:100BA00044380240F0B40E4B1B680C46C3F30223DA
:100BB000C3F10705042D00D90425191D072901D209
:100BC000002300E0DB1E012606FA05F1491E214044
:100BD00099409E40761E16403143F0BC01F048BE5D
:100BE0000CED00E0064900F0070208684FF6FF032D
:100BF000184040EA0220034A104308607047000092
:100C00000CED00E00000FA052DE9F0470E46050066
:100C100065D0DFF81481D8F80000F7B200F00F00BB
:100C2000B04207D288F80070D8F8000000F00F003A
:100C3000B04254D128683D4C810712D5400703D5F6
:100C4000206840F4E05020602878000703D5206831
:100C500040F4604020602068A96820F0F00008435C
:100C600020602878C0072DD03049686808390128ED
:100C700012D0022813D0032811D00968890700294F
:100C80002DDA216821F0030101432160FFF72AFFDB
:100C9000814641F2883A0EE009688903EFE7096866
:100CA0008901ECE7FFF71EFFA0EB0901514502D9CE
:100CB0000320BDE8F0872068696800F00C00B0EB05
:100CC000810FEFD1D8F80010404601F00F01B1427A
:100CD00007D90770006800F00F00B04201D0012072
:100CE000E7E72878400705D52068E96820F4E05058
:100CF000084320602878000706D52068296920F479
:100D0000604040EAC100206000F018F82168084AFD
:100D1000C1F30311515CC8400649086006480068E9
:100D2000FFF708FF0020C4E7003C024008380240FB
:100D3000CC9F04082007002018070020154810B594
:100D4000006810F00C02144813D01449042A0FD084
:100D5000082A0ED10F4C241F2268236802F03F029C
:100D60005B0207D52068C0F38810A0FB010106E0F4
:100D7000084610BD2168C1F38811A1FB00010023C2
:100D8000FFF71EFA2168C1F30141491C4900B0FB7D
:100D9000F1F010BD083802400024F40040787D01D5
:100DA0002DE9F84F04006ED02078DFF83C93C0079F
:100DB000A9F104054AD009F104000168C1F38101D9
:100DC000012908D00068C0F3810002280AD1D9F8AF
:100DD0000000400206D52868800337D560680028E7
:100DE000E1D033E06068B0F5803F10D0B0F5A02FBF
:100DF000286810D020F480302860286820F48020F3
:100E000028606068A8B1FFF76DFE06460DE028680F
:100E100040F48030F4E740F480202860F7E700BF1A
:100E2000FFF760FE801B642873D828688003F7D51D
:100E30000CE0FFF757FE064605E000BFFFF752FE45
:100E4000801B6428F0D828688003F7D42078DFF866
:100E50009C8280074FF0000A3ED5A348001D016820
:100E600011F00C0F08D00068C0F3810002280BD1EC
:100E7000D9F80000400207D42868800716D5E0683A
:100E8000012800D112E02BE1E068B8B10120C8F8D8
:100E90000000FFF727FE064605E000BFFFF722FE31
:100EA000801B0228C0D828688007F7D528682169E8
:100EB00020F0F80040EAC10028600DE0C8F800A06A
:100EC000FFF710FE064604E0FFF70CFE801B022829
:100ED0001FD828688007F7D42078000722D5824ED3
:100EE00083486169703671B101210160FFF7FAFD35
:100EF000074604E0FFF7F6FDC01B022809D830685A
:100F00008007F7D50EE0C0F800A0FFF7EBFD07461D
:100F100005E082E0FFF7E6FDC01B02287DD83068BF
:100F20008007F7D42078400768D5DFF8BCB10027E8
:100F30000BF13C0BDBF80000C0000BD4DBF8001019
:100F400041F08051CBF80010DBF80000012700F0E1
:100F500080500090674E3068C00510D4306840F46F
:100F600080703060FFF7BEFD009005E0FFF7BAFD2E
:100F70000099401A022850D83068C005F6D55A4E5C
:100F8000A0686C3601280FD00528306810D020F0FA
:100F900001003060306820F004003060A068B8B113
:100FA000FFF7A0FD00900FE0306840F00100F4E78B
:100FB00040F004003060F7E7FFF794FD0099411A14
:100FC00041F28830814266D830688007F4D50EE05F
:100FD000FFF788FD009007E0FFF784FD0099411AB4
:100FE00041F28830814256D830688007F4D42FB15E
:100FF000DBF8001021F08051CBF80010A069C8B3D5
:101000003949091D0968C1F3810102294AD0022822
:10101000504607D0C8F8600000E03CE0FFF762FDF2
:1010200004463BE04746C8F86000FFF75BFD064614
:1010300005E000BFFFF756FD801B02282BD828686B
:101040008001F7D4D4E907010843A16A2A4A490874
:1010500002EB0141626A41EA8211084394F82C10C4
:1010600040EA0161C9F8001001203866FFF73AFD37
:10107000044606E036E000BFFFF734FD001B0228FF
:1010800009D828688001F7D52CE000BFFFF72AFDBA
:10109000001B022802D90320BDE8F88F28688001D0
:1010A000F4D41FE00128F7D0D9F80000E26900F479
:1010B0008001914214D1226A00F03F0191420FD188
:1010C00047F6C071626A0140914209D1A26A00F4F8
:1010D0004031914204D1E16A00F07060884201D051
:1010E0000120D9E70020D7E704380240000047423A
:1010F000800E4742007000400000FFFF70B51546AB
:101100000E46040003D094F8490010B107E0012016
:1011100070BD002084F84800204600F01AF804F161
:1011200008012068FFF740FB3146A2682068FFF7FE
:1011300065FBD4E901022946236BFFF715FBA16883
:10114000206850F8212042F0010240F821200020C0
:1011500070BDFFF7ADBB10B5401EB0F1807F01D36D
:10116000012010BD4FF0E02460610F21601701F0F5
:101170007FFB0020A06107202061002010BDFEE75A
:1011800070B50D4C0025C4F8A0520C48016821F43C
:1011900040210160016841F480210160C4F8A4523B
:1011A000022004F5287402F065FC01202060022072
:1011B00002F060FC256070BD0080404200040240E7
:1011C00003480121C0F8A012C0F8A4127047000023
:1011D0000080404270B50D4C0025C4F8A0520C4868
:1011E000016821F440210160016841F4802101601F
:1011F0000126C4F8A462022004F5287402F03AFC27
:101200002660022002F036FC256070BD008040425E
:10121000000402402DE9F047814616480024016889
:1012200021F44021016001680160134E25462746E4
:101230004FF00108C6F8A072022002F01BFCC6F8AD
:10124000A0826006040ED6F8240208B1641CE4B241
:10125000012002F00FFC6D1CEDB2082DEAD3B9F1AC
:10126000000F04D0FFF78CFF2046BDE8F087FFF7A2
:10127000B1FFF9E700040240008040422DE9F0414F
:1012800006461448016821F440210160016841F4D8
:1012900080210160104C0027C4F8A0723D464FF039
:1012A0000108F009C4F8A4027006060E022002F03C
:1012B000E1FBC4F8A082022002F0DCFBC4F8A072BB
:1012C000022002F0D7FB6D1CEDB2082DE9D3BDE87A
:1012D000F0810000000402400080404270B50D48DB
:1012E000016821F440210160016841F4802101601E
:1012F000094C0120C4F8A402C4F8A002042004F59B
:10130000287402F0B7FB00256560042002F0B2FBF0
:10131000256070BD00040240008040420E4810B5B8
:10132000016821F440210160016841F480210160DD
:101330000A4C0020C4F8A002C4F8A402042004F55A
:10134000287402F097FB012020606060BDE8104027
:10135000042002F08FBB00000004024000804042E5
:1013600070B512480024016821F440210160016831
:1013700001600F4D0126C5F8A462304602F07AFBE9
:10138000C5F8A062012002F075FB07E0641CE4B21E
:10139000FA2C03D9FFF7C2FF012070BDD5F8240253
:1013A0000028F3D1C5F8A00270BD0000000402407F
:1013B000008040422DE9F043174C814600252088EB
:1013C00066884643A088A0F5D041043902D1A079AF
:1013D000012807D00021084600F0FCFC00F050FE78
:1013E0000E4814E00020A0712A2767814FF02B08D7
:1013F000A4F80C80014600F0EDFC0120A071A4F8D7
:101400000A80A781EAE700BFA0F800906D1CB542F2
:10141000FAD3BDE8F0830000280700200000086030
:101420002DE9F04F3F492C252A2689882B2745F2A4
:10143000105A4FF4305B4FF4285E4FF0F00C49F235
:1014400041394FF4A07245F2103346F6040478B1E6
:1014500034484FF00108494580F806800280A0F822
:1014600002C001D0994233D10581468187814BE08A
:101470002C484FF00008494580F80680A0F800C0CD
:10148000428003D0A14201D099420AD10581468110
:101490008781A14201D099423ED102804FF4F07180
:1014A0000DE051450DD1A0F808B0A0F80AE04FF4C6
:1014B0002C5181814FF4F07101804FF448714180CB
:1014C0002AE022210181202141812121818123E003
:1014D000A14203D105814781868115E051450DD197
:1014E000A0F808B0A0F80AE04FF42C5585814FF41D
:1014F000487505804FF4F075458005E0222505818B
:101500002125458120258581A14201D0994203D121
:101510004FF4F07101804280BDE8F04F002000F0F0
:1015200055BB0000280700202DE9FE4F161ACDE913
:1015300000104FF000085D1A47464FF0FF30002EB4
:1015400002DD4FF0010102E003D14FF000018B46B4
:1015500002E08346C6F10006002D02DD4FF00100D7
:1015600002E003D14FF00000824602E08246C5F15E
:101570000005AE4201DD344600E02C46601C4FF011
:101580000009029018E0009881B2019880B200F042
:1015900019F8B0442F44A04504DD0198A8EB0408D5
:1015A00058440190A74203DD00983F1B504400902F
:1015B00009F101001FFA80F902998945E3DDBDE8D0
:1015C000FE8F000000B500F005FC00F059FD024858
:1015D00002490088088000BD00000020000008606B
:1015E000F0B51C4615460E4607460B46FFF79CFF16
:1015F0003A46234631461046FFF796FF23462A46D1
:1016000019463846FFF790FF2A4623463146BDE883
:10161000F0401046FFF788BF2DE9FC4F80460025BB
:10162000144603200F46A0EB440649E0381B81B264
:1016300008EB050A01901FFA8AF0FFF7C3FF781B39
:1016400081B208EB040900901FFA89F0FFF7BAFF96
:1016500007EB050B1FFA8BF11FFA89F0FFF7B2FFBA
:1016600007EB04091FFA89F11FFA8AF0FFF7AAFFB6
:10167000A8EB050A1FFA89F11FFA8AF0FFF7A2FF0B
:10168000A8EB04091FFA8BF11FFA89F0FFF79AFF04
:10169000019881B21FFA8AF0FFF794FF009881B297
:1016A0001FFA89F0FFF78EFF6D1C002E03DA06EBA0
:1016B0008506B61D04E0281B06EB8006641E0A366C
:1016C000A542B3DDBDE8FC8F2DE9F041334C9046D7
:1016D0000246A08823460D460F0A160A5B89A0F52C
:1016E0001341413914D0A0F5A641103910D0A0F50E
:1016F000AA41103911D02646A0F5D04CB1793688D0
:10170000B61A761EBCF1040C21D0012935D035E083
:10171000184600F0A9FC304620E0184600F0A4FC72
:10172000304600F095FC6089401C80B200F09CFCC3
:10173000D0B200F08DFCA08900F096FC384600F095
:1017400087FCA089401C80B200F08EFC11E00129CA
:1017500000D1B2B2184600F087FC100A00F078FC05
:10176000D0B200F075FCA08900F07EFC384600F095
:101770006FFCE8B200F06CFC08E0B2B2114618460B
:1017800000F088FCA089294600F084FC04492089E7
:101790000880891CA1F80080BDE8F081280700209E
:1017A000FEFF07602DE9F8431F4C1E468046A388C4
:1017B000089FA3F5D040043802D1A079012807D0B2
:1017C000A2EB0800401C84B20D46DFF8609028E0D0
:1017D00025880846A91AA5EB08030025A5713246FD
:1017E0002A2565812B26491E5B1EA68189B29BB2E4
:1017F0000097FFF7D7FF0120A0716681A581BDE8A2
:10180000F8832946404600F0E5FA00F039FC002054
:10181000494602E0401C0F8080B2A042FAD36D1C02
:10182000ADB2B542EDD9EAE7280700200000086014
:1018300038B5002000903220FFF728F80121002061
:1018400000F028FC3220FFF721F8002000F0B2F968
:10185000CD4A49F241354FF6FF749080FF2804D3FA
:10186000A04202D0B0F5134F61D1D32000F0FCFBB1
:1018700000F096F9908000F093F9908000F090F9D4
:1018800004EA0020908000F08BF991880843908052
:10189000A8424CD0BF2000F0E7FB00F081F9908017
:1018A00000F07EF9908000F07BF9908000F078F9EC
:1018B00004EA0020908000F073F991880843A0F5B5
:1018C000D0419080043932D0D42000F0CDFB00F01C
:1018D00067F9908000F064F9908000F061F904EA03
:1018E0000020908000F05CF991880843A0F5A641A3
:1018F000908010391BD04FF45A4000F0B5FB00F037
:101900004FF990804FF45B4000F0AEFB00F048F9D7
:1019100004EA002090804FF45C4000F0A5FB00F04A
:101920003FF9918808439080B0F5004F7ED080B297
:10193000A8427CD1CF2000F097FB002000F088FB6C
:101940000098401C0090C12000F082FB302000F085
:101950007FFBED2000F088FB642000F079FB032082
:1019600000F076FB122000F073FB812000F070FB8A
:10197000E82000F079FB852000F06AFB102000F0E1
:1019800067FB7A2000F064FBCB2000F06DFB392070
:1019900000F05EFB2C2000F05BFB002000F058FB09
:1019A000342000F055FB022000F052FBF72000F03D
:1019B0005BFB202000F04CFBEA2000F055FB0020F0
:1019C00000F046FB002000F043FBC02000F04CFB81
:1019D0001B2000F03DFBC12000F046FB012000F081
:1019E00037FBC52000F040FB302000F031FB3020F9
:1019F00000F02EFBC72000F037FBB72000F028FBDB
:101A0000362000F031FB482000F022FB3A2000F0A5
:101A10002BFB552000F01CFBB12000F025FB002023
:101A200000F016FB1A2000F013FB01E0A8E09BE099
:101A3000B62000F019FB0A2000F00AFBA22000F0FB
:101A400007FBF22000F010FB002000F001FB262035
:101A500000F00AFB012000F0FBFAE02000F004FB9C
:101A60000F2000F0F5FA2A2000F0F2FA282000F00A
:101A7000EFFA082000F0ECFA0E2000F0E9FA082056
:101A800000F0E6FA542000F0E3FAA92000F0E0FAB2
:101A9000432000F0DDFA0A2000F0DAFA0F2000F00F
:101AA000D7FA002000F0D4FA002000F0D1FA00208C
:101AB00000F0CEFA002000F0CBFAE12000F0D4FADA
:101AC000002000F0C5FA152000F0C2FA172000F03F
:101AD000BFFA072000F0BCFA112000F0B9FA062086
:101AE00000F0B6FA2B2000F0B3FA562000F0B0FA5E
:101AF0003C2000F0ADFA052000F0AAFA102000F01A
:101B0000A7FA0F2000F0A4FA3F2000F0A1FA3F202E
:101B100000F09EFA0F2000F09BFA2B2000F0A4FAB0
:101B2000002000F095FA002000F092FA012000F069
:101B30008FFA3F2000F08CFA2A2000F095FA00205E
:101B400000F086FA002000F083FA002000F080FA0E
:101B5000EF2000F07DFA112000F086FA7820FEF7E1
:101B600095FE292000F080FA0020FFF759FC074974
:101B70000120C1F884022046BDE83840FFF71ABCB6
:101B800045F210509080EFE7280700200080404287
:101B90000246012000E05043491EC9B2FBD2704703
:101BA000034808B50088ADF80000BDF8000008BD86
:101BB0000000086001B5BDF8000000F055FA0520EE
:101BC00001F058FFBDE80840FFF7EABFF0B5804DCF
:101BD00000242946AA79898846F60407012A18D1E3
:101BE000B94216D0082814D2DFE800F00406080A2B
:101BF0000C0E101206200CE007200AE0042008E07A
:101C0000052006E0012004E0002002E0032000E0BF
:101C10000220A1F5134345F2103245F21056413B24
:101C200005D0B94203D0914201D0B1427ED10828FB
:101C300012D2DFE800F0110406080A0C0E1080240E
:101C40000AE0402408E0C02406E0202404E06024E8
:101C500002E0A02400E0E024B14202D14FF4585049
:101C600000E03620914203D0B14201D044F0080494
:101C7000B94201D144F00204214600F00BFAA0065B
:101C800009D4A879012806D028886988884211D902
:101C9000298068800EE028886988884201D22980DE
:101CA0006880A879012805D1A888B84202D06A883E
:101CB0002C8801E02A886C88A888B04268893ED1C7
:101CC00000F0D2F9002000F0C3F96889401C80B20E
:101CD00000F0CAF9002000F0BBF96889801C80B2CE
:101CE00000F0C2F9521EC2F30F2000F0B1F968896A
:101CF000C01C80B200F0B8F9D0B200F0A9F9A889F0
:101D000000F0B2F9002000F0A3F9A889401C80B2CD
:101D100000F0AAF9002000F09BF9A889801C80B28D
:101D200000F0A2F9641EC4F30F2000E02AE000F0E6
:101D30008FF9A889C01C80B200F096F91DE000F070
:101D400093F9002000F084F9002000F081F9521E80
:101D5000C2F30F2000F07CF9D0B200F079F9A88925
:101D600000F082F9002000F073F9002000F070F913
:101D7000641EC4F30F2000F06BF9E0B2BDE8F04040
:101D800000F066B9082812D2DFE800F00406081156
:101D90000A0C0E1030240AE0102408E0202406E08B
:101DA000382404E0282402E0182400E00824A1F5E7
:101DB0000940893806D0032044F48051BDE8F04042
:101DC00000F068B9112046F240012143F6E7000017
:101DD000280700202DE9F043DFF8D0800C460246AA
:101DE0004FEA1129B8F804004146150A4B89A0F5BD
:101DF0001346413E13D0A0F5A64110390FD04646F8
:101E0000A0F5D047B1793688B61A761E043F0BD0BC
:101E1000A0F5AA47103F1BD001293AD03AE0184656
:101E200000F022F9284606E0012900D1B2B2184696
:101E300000F01AF9100A00F00BF9D0B200F008F91E
:101E4000B8F80C0000F010F9484600F001F91BE06A
:101E5000184600F009F9284600F0FAF8B8F80A0028
:101E6000401C80B200F000F9D0B200F0F1F8B8F8F0
:101E70000C0000F0F9F8484600F0EAF8B8F80C0059
:101E8000401C80B200F0F0F8E0B2BDE8F04300F092
:101E9000DFB8B2B21146184600F0FCF8B8F80C00F2
:101EA0002146BDE8F04300F0F5B800002807002007
:101EB0002DE9FF4F1D460C468A46580700D00120E9
:101EC00000EBD500690810FB01F0203A00F0FF0993
:101ED000D0B20026DFF898B0029044E00C2D11D06B
:101EE000102D14D0182D40D10298224900EBC000CB
:101EF00001EB80004FF00008875D38060CD51E48C6
:101F000002880DE002981D4900EB4000F0E71C49F3
:101F1000029801EB0010EDE70D9828B916484288A9
:101F200021460098FFF7D0FB7806070E641CBBF82B
:101F30000200A4B2A04218D9A4EB0A00A84209D119
:101F400000985446401C80B20090BBF800108142BB
:101F50000BD906E008F1010000F0FF08B8F1080F06
:101F6000CBD3761CF6B24E45B8D3BDE8FF8F000048
:101F7000280700203C5B000800000020D850000823
:101F80004C5500082DE9FF4F81B00026DDF838A040
:101F90001D46934681463446B0464FEA5A0727E02D
:101FA000281B401EC1B20A20FFF7F2FDBBFBF0F078
:101FB0000A21B0FBF1F201FB120026B9691E8C4226
:101FC00001DA48B101263030C2B207FB049080B27A
:101FD0005346CDF8008006E007FB049080B25346DC
:101FE0002022CDF800800299FFF762FF641CE4B262
:101FF000AC42D5D305B0BDE8F08F2DE9F84F0446CB
:1020000000F0FF0910190D46DDE90AB61FFA80F845
:10201000581987B24FF0000A12E0444503D305EB8C
:102020000B004C4685B2BD420FD25B462946204686
:10203000CDF800A0FFF73CFF04EB5B0084B2761CF8
:102040003278A2F120005E28E7D9BDE8F88F0000C1
:1020500001B5BDF80000ADF80000BDF80000014971
:10206000088008BD0000086001B5BDF80000ADF8AB
:102070000000BDF800000149088008BDFEFF0760B0
:1020800002480349008908807047000028070020A3
:10209000FEFF076003B5BDF8000003490880BDF8E6
:1020A0000400891C08800CBDFEFF076010B58EB0CF
:1020B0001C216846FEF7CEF81C2107A8FEF7CAF8D7
:1020C00018484FF02041102201601749416000215B
:1020D0008160C160C0E904128161C16113020162C3
:1020E000C0E909139302C0E90B13416381634164A2
:1020F0000F203C230090CDE9010303AC112384E8B9
:102100000E0009240691CDE9074009AC082084E8B7
:102110000F000D9107AA69460248FEF7EFFF0EB0C7
:1021200010BD000038140020040100A0F0B587B0F5
:1021300014216846FEF78EF822480025016841F018
:1021400004010160016801F004010591016841F09A
:1021500002010160016801F002010591016841F08E
:1021600010010160016801F010010591016841F062
:10217000080101600068144F00F008004BF20236BD
:102180000590012231463846FEF7A6FC2020CDE915
:1021900000050124694602940C48FEF7C1FB0320A8
:1021A000CDE90240CDE9006469463846FEF7B8FB48
:1021B000A003CDE90005694602943846FEF7B0FB5E
:1021C00007B0F0BD30380240000402400008024071
:1021D000014800F04FBE000088140020FEE7704761
:1021E000704700002DE9F043814688466FF03700C4
:1021F00000EB520100EB53008DB286B20022079C27
:102200002AE000BF09EB8207B7F90000401BC117A5
:1022100000EB9170C0F38F00002102F0BDFC03467B
:10222000B7F90200801BC11700EB9170C0F38F005B
:10223000002102F0B1FC1B2B00D91B231B2800D965
:102240001B20C0EBC00003EB800108EB8100B7EE60
:10225000000A80ED000A521CA242D3DBBDE8F083E5
:1022600070472DE9FF4F81B00446DDE90E768046C8
:102270000D46894600203EE050BB039808EB000B5A
:1022800004984844A0EB060A3A78802A20D8ABEBA1
:102290005600A04202DAA81985B24446AA450FDBCF
:1022A0000D2A10D010980090334629462046FFF79B
:1022B000FFFD17F8011F04EB560084B20029E3D19B
:1022C00005B0BDE8F08FA81985B244467F1CF0E741
:1022D000039A002008EB0201891BA14202DAA91926
:1022E0008DB24446049A09EB0201891BA942E7DB3F
:1022F000A1198CB2BF1C39780029BDD1E0E7FEF7E7
:10230000F7BB000010B592B030216846FDF7A2FF80
:1023100014210CA8FDF79EFF14480024016841F029
:1023200080510160006800F08050119010480168F1
:1023300041F4804101600068069400F480401190EF
:102340000220009001200390102004906846FEF7C0
:1023500027FD0F20CDE90C040E940F9400210CA84A
:102360001094FEF751FC12B010BD0000403802403E
:10237000007000400548016841F4700101600349A4
:102380004FF00060803908607047000088ED00E081
:102390002DE9FF4F83B00E46DDE910A94E490746EF
:1023A0004FF47840DDF8508008804CA01024CDE92F
:1023B00000404B4D9346A0216B882A882820FFF7C8
:1023C0001CFE48A0CDE900406B882A88A021782017
:1023D000FFF713FE44A0CDE900406B882A88B421A2
:1023E0002820FFF70AFE41A0CDE900406B882A882B
:1023F000B4217820FFF701FE3DA0CDE900406B88B5
:102400002A88C8212820FFF7F8FD3AA0CDE900402E
:102410006B882A88C8217820FFF7EFFD36A0CDE928
:1024200000406B882A88DC212820FFF7E6FD33A0D6
:10243000CDE900406B882A88DC217820FFF7DDFD9C
:102440002FA0CDE900406B882A88F0212820FFF7D3
:10245000D4FD04233A46A02140200094FFF792FDCA
:1024600004233246A02190200094FFF78BFD042323
:102470005A46B42140200094FFF784FD04230094C1
:10248000B4219020069AFFF77DFD04235246C8210F
:1024900040200094FFF776FD04234A46C82190208F
:1024A0000094FFF76FFD04230094DC214020129A72
:1024B000FFF768FD04230094DC219020139AFFF7B6
:1024C00061FD03234246F02160200094FFF75AFD8E
:1024D00007B0BDE8F08F00000000002078313A001E
:1024E0002807002079313A0078323A0079323A00F0
:1024F00078333A0079333A0078343A0079343A0044
:102500006661632069733A002DE9F0410446194879
:102510000D460B46028004F10D0082B2193880B2DC
:10252000FFF702F805F10D0083B2193881B2224697
:102530001046FEF7F9FF6E1C04F10108B1B21FFA54
:1025400088F0FFF73FF8B1B2661EB0B2FFF73AF875
:102550006F1EB9B21FFA88F0FFF734F8B9B2B0B203
:10256000FFF730F829462046BDE8F0410622FFF784
:1025700053B800000000002010B535202DED028B6F
:10258000FEF77EF80A2803D00020BDEC028B10BDB8
:1025900004212820FEF75FF800EE100A9FED178A4D
:1025A000174CB8EEC00A04212C20C0EE080AC4ED76
:1025B000060AFEF750F800EE100A02213020B8EEAD
:1025C000C00AC0EE080AC4ED070AFEF744F82084EA
:1025D00002213220FEF73FF860843420FEF750F8E5
:1025E0009022084984F82400D02310B10A704B705F
:1025F00001E00B704A700120C7E7000020BCBE4C10
:1026000038070020040000202DE9F04700271D4C6A
:102610003D463E46C4F8B472C4F8BC72C4F8B07209
:1026200004F52C7400F0F0F8062001F023FA66603F
:10263000012001F01FFA4FF00108C4F80480404661
:1026400001F018FA6660B14646464FF6FF78A4F5E9
:102650002C7400BF08EA4505C4F8B492012001F0CB
:1026600009FAC4F8B462D4F8380208B16D1CADB2EE
:102670007F1CFFB2102FEDD32809C4F8B062BDE86B
:10268000F087000000804042FEB5064600256C46FB
:102690003046FFF7B9FF24F815006D1CADB2052DCB
:1026A000F6D30020431C99B20CE000BF34F8102090
:1026B00034F81150AA4203D924F8105024F81120FC
:1026C000491C89B20529F1D398B20428EAD3002124
:1026D0005FF0010034F81020401C114480B289B230
:1026E0000428F7D30320B1FBF0F0FEBD2DE9F04143
:1026F000074C06460D462078FFF7C6FF0746607870
:10270000FFF7C2FF378028800120BDE8F08100007C
:10271000040000207FB50C460546694602A8FFF775
:10272000E5FF00282FD001A903A8FFF7DFFF00284D
:1027300029D0BDF80C30BDF80820934203D803F12E
:102740003200824205D39A421FD802F132008342FE
:102750001BD2BDF80410BDF80000814203D801F17E
:102760003206B04204D388420FD8323081420CD2B4
:10277000D01840082880BDF80000BDF804100844B7
:1027800040082080012004B070BD0020FBE700005D
:1027900010B51B4C04222DED028B282094ED060A67
:1027A0009FED188A20EE080ABDEEC00A10EE101A3E
:1027B000FDF787FF94ED070A04222C2020EE080A7B
:1027C000BDEEC00A10EE101AFDF77BFFB4F9201021
:1027D00002223020FDF775FFB4F9221002223220C8
:1027E000FDF76FFF94F824103420FDF77FFFBDEC58
:1027F000028B0A21BDE810403520FDF777BF0000AD
:102800003807002020BCBE4C2DE9F04100240D4DBE
:10281000064627464FF00108300602D5C5F8BC82AF
:1028200001E0C5F8BC727006060EC5F8B47201204E
:1028300001F020F9C5F8B482641CE4B2082CEBD393
:10284000BDE8F08100804042FEE74100080218BF69
:1028500004200A0E18BF40F001004FF07F4232EA18
:10286000010108BF40F00200012808BF05207047A1
:102870000907090E002804DB00F1E02080F80014AD
:10288000704700F00F0000F1E02080F8141D704741
:1028900010B510EE104A4FF019406849002200EBC5
:1028A00044002DED028B884257D8DFED650A14F005
:1028B000004F60EE200A14BFBEEE001AB6EE001AFA
:1028C00071EE200AFDEEE00A10EE900A00EE900A8A
:1028D000F8EEE00A9FED5B1A00EEC10A9FED5A1A6E
:1028E00000EEC10ADFED590A9FED591A00EE201AD9
:1028F000DFED580A40EE010A9FED571A574B00F0E2
:10290000030100EE201A21EE000A7B4403EB810351
:10291000D3ED000A524B7B4403EB810393ED001A85
:10292000504B41EE000A7B4403EB8101801091ED96
:10293000000A70EE800AEABB00EE100AB8EEC01A78
:10294000DFED491A9FED490ABDEC028B01EE210A29
:10295000BCEEC00A20EE200A10BD4FF0FF40A0439D
:102960001BD04FF0CE40B0EB440F82BFB7EE000A51
:10297000BDEC028B10BD3E48B0EB440F28BF0122D6
:1029800093D2022000F0D8F814F0004F15D0BDEC1F
:10299000028BBDE8104000F0B7B814F5000F02BF7D
:1029A0009FED340ABDEC028B10BDBDEC028BBDE87F
:1029B000104000E007E000F09CB8BDEC028BBDE8E1
:1029C000104000F099B800EBD07359104FF07E52D0
:1029D00002EBC15100EE101AA0EB630002EBC050F5
:1029E00060EE200A00EE100A20EE208A18EE100A8F
:1029F00088B118EE100AB0F1FF4F15D018EE100A8A
:102A0000FFF723FF042808BF00F07EF8B0EE480A65
:102A1000BDEC028B10BD022000F08EF8BDEC028BE5
:102A2000BDE8104000F070B8022000F085F8BDEC61
:102A3000028BBDE8104000F05FB800000000501E9F
:102A40003BAAB8400070313EF4FD053712BB2A3D69
:102A500012BB2A3EFFFFFF3EFFFF7F3FFE760400D2
:102A600002770400D27604000000004B00007E4E86
:102A70000000A0850000000000B52DED048BB0EE35
:102A8000409AF0EE609A83B051EC190BFDF752FDBD
:102A900041EC180B18EE100A18EE901A8DED008B11
:102AA000002818BF0120084320F00040C0F17F60DB
:102AB00000F1E040C00F14D019EE101A19EE900A80
:102AC0008DED009B002918BF0121084320F0004034
:102AD000C0F17F6000F1E040C00F04BF012000F0B2
:102AE0002BF8B0EE480A03B0F0EE680ABDEC048B98
:102AF00000BD30EE000A70479FED020A20EE000A8A
:102B000070470000000000709FED020A20EE000AEE
:102B1000704700000000001002E008C8121F08C142
:102B2000002AFAD170477047002001E001C1121F4E
:102B3000002AFBD17047000001490860704700007F
:102B4000240700202DE9FE4F92460F46040004D0D2
:102B5000B4F8480020B1E56C03E00020BDE8FE8F2A
:102B600000250020E082A082207BC043800702D0A5
:102B700030221121DDE0DFB3D5B32888C0B3B7F828
:102B80000490002659E0A868006800EB0610019048
:102B900055D068B306EB4600029007EBC0000090EA
:102BA0000389DBF81820C1889E46C0684B43D2F8E1
:102BB00004C04343634519D8DBF80C30D3F80C80CC
:102BC000884513D1D3F80880F0450FD15968814268
:102BD0000CD16146106800F09DF9DBF80C10DBF8B1
:102BE0001420C968D2685143884204D2182200E0F8
:102BF00025E012219DE0DBF81800006800F0AAF93A
:102C000020F07E41029857F8300020F07E4081424B
:102C100001D01922EBE70098006980B10098808804
:102C200078B14946484500D208468146DDE90010A2
:102C30005A4600F08EF8761C2DB1288804E0172241
:102C4000D5E72122D3E70020B04206D9686820B139
:102C500050F826B0BBF1000F95D1BAF1000F0AD0A1
:102C6000B4F84800012808D9E56C0C3505D028884F
:102C700018B1002759E0012070E7182258E0A86831
:102C8000006800EB07183BD0B8F1000F38D007EB15
:102C900047000AEBC00101900A89D6F818C0C8881D
:102CA0008B469646CB684243DCF804105A438A426E
:102CB000E3D8F2680092D2688242DED1009882683E
:102CC0007245DAD1009840689842D6D1DCF800000D
:102CD00000F020F9F1687269C968D26851438842EE
:102CE000CBD3B069006800F035F920F07E4201983E
:102CF0005AF8300020F07E40824203D0192217E0BB
:102D0000172215E0DBF810000028F9D0BBF804000A
:102D100068B14946484500D2084681465946324680
:102D2000404600F016F87F1C3DB1288806E02122BD
:102D30001321204600F060FE0FE70020B84205D9BD
:102D4000686818B150F82760002E98D1A4F8149044
:102D500091E730B5D368DC685369DB685C43846015
:102D60008B886343C3600C6944600969194401603E
:102D700091690B689B0007D4D1E902355B1B2344A2
:102D80008B6091694068C86030BD70B5054600260B
:102D900021E0A9688369096801EB061419688900B4
:102DA00005D5D4E901129868FDF73BFA08E0D3E9AC
:102DB0000212891A62681144996080696168C16071
:102DC000D4E90101084460602168884201D3E068C9
:102DD000081A761C60600DB1288800E00020B0421F
:102DE00006D96868002803D050F826000028D0D102
:102DF00070BD2DE9F041054600262BE0A968096861
:102E000001EB061481690A6892000FD5A2688968EF
:102E10006068FDF706FAD4E901100144616020689A
:102E2000814201D3E168411A616012E0D4E90112E4
:102E3000114461602268914201D3E168511A6160D6
:102E40008269D2E90237DB1B1944916080696168AD
:102E5000C160761C0DB1288800E00020B04206D980
:102E60006868002803D050F826000028C6D1BDE8C5
:102E7000F081000010B58CB004463022124968463B
:102E8000FDF7CFF900F0B8FC049000210A940F4838
:102E900000F0A6FC10F0FF0F03D04FF0FF300CB095
:102EA00010BD0A4C6946206800F0AEFC08B1002055
:102EB000F5E7206800F0A6FC206800F0A1FC0020E7
:102EC0002060801EEBE700009C9F0408D8060020CD
:102ED00070B5B8B1B1B10E4C23689BB1251D01226C
:102EE000AA80286104F11C00828001610246211D34
:102EF000184600F0B7FC012807D0206800F082FCDB
:102F0000000A70BD4FF0FF3070BD002070BD0000A2
:102F1000D806002099B1C0F3C612C0F3823313441F
:102F200003FB01F2D21D22F00701C0F34152D14050
:102F3000C0F34340042804D0082807D104E000204F
:102F4000704701EB031101E001EB0321C91DC80823
:102F50007047000030B54021C0F34342022A18D028
:102F60002E4A20F07E44A31A0D01944247D024DC5F
:102F70002B4AA4EB0203944241D017DC402C42D0F0
:102F8000403CB4F5802438D0AC423CD12449C91F20
:102F900039E0C0F3C051C905C0F3C61241EAC211FD
:102FA00000F07F02114341F480212CE0A3F540732F
:102FB000F93B16D00F2B26D123E0B3F5006F14D0C8
:102FC00006DCAB420FD0A3F58063073B1BD10EE0BC
:102FD000A3F500630F3B0DD0124AD34213D112491F
:102FE00011E012490FE012490DE012490BE01049BF
:102FF000C91D08E00F490F3105E00F4903E01146F4
:1030000001E00A490F3100F080420A4300F000510C
:10301000114300F00060084330BD00004000840010
:10302000470404000FF801FF40108201400804002B
:1030300040048400400884004000040008B509A151
:103040000968009148B101789DF80020914204D1AF
:1030500004226946FDF709F908B1002008BD0120E6
:1030600008BD0000038404842DE9FF4F83B0DDE92F
:103070001141B1FBF4FADDE91370DDE91895DDE9E2
:103080001668791B61430291DDF840E0DDF854C019
:10309000411B0191ACEB0801414306FB00900091FC
:1030A00003EB8001049B9E4502D19FED361A01E09F
:1030B000B7EE001A7E43664302EB86024FF000092A
:1030C00002EB840B58E0002753E000BF0EEB8900B1
:1030D000002690ED000A104620EE010A3CE0002395
:1030E00025F0030C22E000BFD1ED002A90ED003A5C
:1030F00000EB840091ED012A02EE830AD0ED002A54
:1031000000EB8400D1ED021AD1ED030A103102EE7A
:10311000220A90ED002A00EB84001B1D01EE820ABA
:10312000D0ED001A00EB840000EEA10A9C45DBDC28
:1031300009E000BFF1EC010AD0ED001A00EB8400B9
:103140005B1C00EEA10AAB42F4DB029B761C00EB99
:103150008300019B01EB83014645C0DB00987F1C87
:1031600001EB8001049800EB890009F1010980ED71
:10317000000A5745AAD3121D9345A4D807B0BDE84D
:10318000F08F0000000000002DE9FF4F8DB01AAC59
:10319000DDE9255294E88140DDE92363DDE91F8AFA
:1031A000DDE9219CDDF874B000B908469C1B531B77
:1031B0001E9ABCF1010F02FB08F201D1012A1CD0BA
:1031C000BC4501D1012A28D0CDE90B53CDE906A990
:1031D000CDF820C0CDF81480CDE909641E9BCDE95F
:1031E0000007CDF808E0CDE903B3DDE90F230D9822
:1031F00000F024F811B0BDE8F08FCDE90664CDE908
:103200000853CDE90007CDE904A9CDE902EBDDE9DA
:103210000F230D9800F0C4F8ECE7CDE90664CDE982
:103220000853CDE90007CDE904A9CDE902EBDDE9BA
:103230000F230D98FFF718FFDCE700002DE9FF4F83
:1032400086B017ACDDE91EC794E845009CFBF0F49E
:1032500000FB14C4041B94FBF0F5DDE91C9100FB9A
:10326000154E99FBF2F502FB1594141B94FBF2F535
:1032700002FB15450CEB0004641E94FBF0FC09EB0B
:103280000204641E94FBF2F8A7EB0E04DDE9143B84
:10329000491B1144491E91FBF2F7DDF86CA0044470
:1032A000641E94FBF0F4CDE9008CDDF858C0B3FB4C
:1032B000FAF102FB0CF200FB142258435A43401A65
:1032C000CDE90402301B48431A9A039001FB06F033
:1032D000D21B5043DDE9008C029008FB06C0BBFB0B
:1032E000FAFB099A484302EB8002079E1398B0420A
:1032F00002D1DFED2A0A01E0F7EE000A169809EB89
:10330000050606FB00E05843089B4FF0000803EB5E
:10331000800E40463BE0002633E01398002500EB8A
:10332000880090ED000A704620EE200A1CE0002381
:1033300011E000BF00EB810C06E000BFB2EC011A07
:10334000F0EC011A01EE210A6045F7D3DDF810C058
:103350005B1C00EB8C00A342ECDB059B6D1C00EBBF
:103360008300039B02EB8302BD42E0DB0298761CE4
:1033700002EB8002079800EB880008F1010880ED5D
:10338000000A5E45C9D30EEB810E09F101008146AA
:103390005045C0D30AB0BDE8F08F00000000000027
:1033A0002DE9FF4F81B08A46DDE91161DDE90E822A
:1033B000DDE91447179DDDF84CC0701B50430090A9
:1033C000481B00FB02FE02FB01F0ACEB070C00FB0C
:1033D0000CFB1698DDF8409004FB0100504303EB12
:1033E000800102FB05F0D04502D1DFED2B0A01E0A0
:1033F000F7EE000A74435443039A02EB8406002458
:1034000044E000BF08EB8402002592ED000A32463A
:1034100020EE200A31E0002320F0030C1BE000BF67
:1034200092ED004AD1ED004AD2ED012AD1ED013AE8
:1034300004EE840A92ED022A91ED023AD2ED031ACB
:1034400091ED031A103103EEA20A10321B1D03EE98
:10345000020A01EE210A9C45E2DC06E0F1EC011AC9
:103460005B1CB2EC011A01EE810A8342F6DB009B81
:1034700001EB8E0102EB83026D1CBD42CBDB0AEB3C
:10348000840201EB8B0182ED000A641C4C45B9D328
:1034900005B0BDE8F08F0000000000002DE9FF4FEF
:1034A0008DB00F46DDE91C960025DDF89CB0DDF8F7
:1034B00078A0DDF86C80259C31E06042002800DCBB
:1034C0000020311B5A46594500D31146269A23182D
:1034D00002FB06320F9B02FB08F203EB8202DDE9DE
:1034E000233CCDE90B01CDE9093CDDE91F130DF1CA
:1034F000140E2998DDF888C08EE80B1028983946FC
:10350000CDE90360CDE901891A980090109B0D98D0
:10351000FFF73AFE219807EB890704446D1C5545D7
:10352000CBD311B0BDE8F08FF0B5059D25F00104B7
:1035300003EB84069FED460AEF085AE051F8044B6E
:10354000D3ED002A04F0FF0C4FEA1C1E02EB8E0E96
:103550000CF00F0C9EED002A02EB8C0C02EE220AFE
:10356000DCED001A93ED012AC4F3072C4FEA1C1E70
:1035700002EB8E0E01EE820A9EED001AD3ED021AC6
:103580000CF00F0C02EB8C0CD3ED042A01EE210A97
:10359000DCED000A93ED031AC4F3074C4FEA1C1E3E
:1035A00002EB8E0E00EE810A9EED002A0CF00F0C4D
:1035B00002EB8C0C240EDCED001A02EE220A93EDD5
:1035C000052A4FEA141C02EB8C0C04F00F049CED4E
:1035D000001A01EE820AD3ED061A02EB8404D4ED40
:1035E000000A01EE210A93ED071A20337F1E00EE38
:1035F000810A002FA2D115E011F8014B93ED001ABA
:10360000270902EB870704F00F04D7ED000A02EB4D
:10361000840400EE810AD4ED000A93ED011A083308
:1036200000EE810AB342E7D3EC0709D0097893EDA5
:10363000001A090902EB8101D1ED000A00EE810AAE
:10364000D0ED000A30EE800A80ED000AF0BD0000E7
:1036500000000000F0B59FED380A059DEE0851E02E
:1036600051F8044BD3ED002AE7B202EB8707D7ED00
:10367000001AC4F3072702EB870701EEA20A97EDB1
:10368000002AD3ED011AC4F3074702EB8707240E83
:1036900002EE210A97ED001AD3ED021A02EB840420
:1036A000D3ED042AD4ED000A01EE210A93ED031AAA
:1036B00051F8044BE7B202EB870700EE810A97ED61
:1036C000002AC4F3072702EB8707D7ED001A02EEA2
:1036D000220A93ED052AC4F3074702EB8707240E5D
:1036E00097ED001A01EE820AD3ED061A02EB84046C
:1036F000D4ED000A01EE210A93ED071A2033761E5D
:1037000000EE810A002EABD105F007040BE000BFEC
:1037100011F8015B641E02EB8505B3EC011AD5EDCF
:10372000000A00EE810A002CF2D1D0ED000A30EE42
:10373000800A80ED000AF0BD00000000F0B5042B07
:10374000DDE9055400EB840427D0082B27D12FE0B6
:1037500000236E0812E00F783F0902EB870797ED10
:10376000000A80ED000A11F8017B07F00F0702EB59
:10377000870797ED000A80ED010A08301F465B1CA1
:10378000B742E8D3EB0708D011F8013B1B0902EB65
:10379000830393ED000AA0EC010AA042D8D3F0BD48
:1037A00011F8013B02EB830393ED000AA0EC010A40
:1037B000A042F5D3F0BD10B5016904468847E06822
:1037C000A04200D1002010BD10B50446006D0028B5
:1037D00005D06065FFF7EFFF60650028FAD110BDE6
:1037E0001CB500230322CDE900230123014A00F088
:1037F00049F81CBD3004002000487047C468000828
:1038000000F078B800F080B810B50C4600F08AF8E7
:10381000002824D0214601F0C3F9A16A104AC91C2E
:1038200021F003010E4B9160D160703300220C4CEB
:103830009A60DA60803401F5D053A360E36004F14C
:1038400010039960D96010339960D960103301F585
:10385000C8719960D96003F110018A60CA6010BD17
:103860006003002000F09DB810B518B1044A01684B
:10387000914200D000200446FCF758FF204610BDBE
:103880000001C0A12DE9F8430546DDE90810914685
:103890001A0642EA01414FF0000841EA0027444677
:1038A000FCF744FF0F4E65B10F49C9F80010C5F889
:1038B000009000F0BAF838B10C48874206D9746815
:1038C0000CE0F069BDE8F883346807E008A0006800
:1038D00000906846FFF7B2FB10B9B468C5F80080E5
:1038E0002046EFE7DC9F04080001C0A100000301AF
:1038F0000384048410B50446FFF7B6FF08B1002026
:1039000010BD204610BD000010B5FFF7ADFF20B17F
:10391000BDE81040103000F082B80148806910BD49
:10392000DC9F040870B50C46FFF79EFF050004D02D
:103930002CB12169A06A28B10CE0002070BD1122D1
:10394000102111E0208CE28B5043626A504301D079
:10395000132207E059B92089E1884843E1684843C8
:1039600005D012221021284600F046F8E5E718227B
:10397000214605F11800FCF754FC182204F1180147
:1039800005F13000FCF74DFC0320E860286D30B1F4
:103990008560C168814202D009B10846F8E728462F
:1039A00070BD70B515460E46FFF75EFF04462A4609
:1039B0003146FFF7C7F800281DD0B4F8480008B119
:1039C000E56C00E00025012802D9E66C0C360DE01C
:1039D00000260BE02846FFF7D8F92046FFF7F4FE53
:1039E0003046FFF706FAE08A401CE082E08AA18AAE
:1039F0008842EFD380B270BD002802D0103000F0B2
:103A00002BB8704702460068010A012004E05368A1
:103A1000491E53F8213058430029F8D1704700223D
:103A2000016802700260084670470120704718B1B3
:103A3000806903C8FFF76EBA0120704710B1806932
:103A40008068704709B18868704700207047002877
:103A500001D0406980687047037813F0FF0F01D0F0
:103A6000002070470170016862F31F21016001208E
:103A7000704700002DE9F0414FF0E0240546A769AA
:103A8000FDF730F8064605EBC500C500BD420BD971
:103A9000FDF728F8B042FBD00849781B0844A1691B
:103AA0008142FCD8BDE8F0817D1BA069A842F9D90C
:103AB000FDF718F8B042F8D0F4E700004019010013
:103AC0002DE9F04F04464069BFB0018809B1426852
:103AD00000E0002252682AB109B1426800E00022E9
:103AE00052681268012902D943680C3300E00023B0
:103AF0005B6843B1012902D943680C3300E000231D
:103B00005B681F6800E00027022902D94368183368
:103B100000E000235B6843B1022902D943681833EF
:103B200000E000235B681D6800E0002502290BD936
:103B3000436813F1180F07D033F8186F012E03D91B
:103B40005B6813B15B6800E00023022902D9466874
:103B5000183600E00026766846B1022902D940688E
:103B6000183000E000204068806800E000208046B7
:103B7000D06841683091F968D1F804B0CE681796E2
:103B800089683391C1682F9180682490A08C80B29D
:103B90001E90208D80B23290A06B018889B208916E
:103BA000818889B23791018980891FFA81FA1FFAC9
:103BB00080F9A0693590A08D80B22E90208E80B2C1
:103BC0001990E9684868209088681F90E06B3990E8
:103BD000606C3890A06C1B90206D01680A91406861
:103BE0003C90906980682390A8698068079013B121
:103BF0009869806800E0002031904046E169FFF755
:103C00001DFF064618904046FFF721FF1A904046D8
:103C1000FFF70DFF3D90206A00B9BE481690606D19
:103C20002C901F981999421E491E02FB01002099F1
:103C30002E9A2790481E521E00FB021024992590B0
:103C4000091A3798084400EB09011E98B1FBF0F0FF
:103C5000206C13902F992798081A089901443298DC
:103C60005144B1FBF0F0401C3A90D5F818C0002048
:103C7000DCF80010C1F3C613C1F34152D340C1F3C5
:103C80004341042901D008292AD1DCF80C203AB399
:103C900061690D88032D04D9D1F8048008F1240846
:103CA00001E04FF00008D8F80480B8F1000F0BD005
:103CB000032D02D94868243000E0002040684068A5
:103CC00010B181698D6800E00025806941683098F5
:103CD000CDE900012846DCF80810FFF72FFD05B9F3
:103CE000079D2295B8693B900A98002100B2824650
:103CF00036911591269060690188032902D942689E
:103D0000243200E00022526842B1032902D94068FF
:103D1000243000E000204068056800E00025E868E5
:103D2000D0F80890A869846808984042E2E03A9880
:103D3000002859DD379843421D984042002800DC96
:103D400000201D9A2F99891A279A914200D3114673
:103D5000199ADDF874C017B22E9ADDF8948012B269
:103D6000CDE90E27CDE90CC8359A09AF089287E84E
:103D70000B001EAF97E80E00CDE90621CDE90493B4
:103D8000DDE930022499CDE90020CDE902B1DDE979
:103D9000223221460020FFF781FB00271BE08460D0
:103DA000A869DDF858C033465A460146E0471A98DC
:103DB00006441898311A3D98814200DB189EA86984
:103DC00004EB8B04C168406801EB8001A14201D87B
:103DD000A4EB80047F1CA8694F45E0D3C1688160D3
:103DE0000AF101000FFA80FA3A98401E3A903DD548
:103DF000A9690BFB09F000FB0AF0CB68A4EB80007B
:103E00002246834202D9496800EB8100834210D2E6
:103E1000139B1BB29A4505D10BE000BFB0EC010A21
:103E2000A4EC010AA969CB68496803EB81018142CE
:103E3000F4D81398A0EB0A013698084400B23690E3
:103E40001B9850440FFA80FA1B9800FB09F000FB06
:103E50000BF002EB8004A869C268416802EB8100A4
:103E600002E000BFA4EB8104A042FBD91398824575
:103E70003DD31B983B99AAEB00000FFA80FA1598E6
:103E800005AF401C15903398012382B21B9808910E
:103E900080B287E80D00269938988AB23C99139B26
:103EA00080B2CDE9032089B29BB2CDE901313998C6
:103EB000139980B2009036982C9F081A82B21FFA8C
:103EC0008BF31FFA89F1A869B8473B983399826848
:103ED0000BFB01F002EB80013B9881601B98269957
:103EE00000B2081A002800DC002000B226903299A7
:103EF0001D9808441D90179915988842FFF417AF34
:103F0000A869C16881603B98C16881603FB0BDE825
:103F1000F08F0000EF4100082DE9F04F406988B0B4
:103F2000018809B1426800E00022526832B109B14B
:103F3000426800E000225268136800E00023012973
:103F400002D942680C3200E0002252683AB10129DD
:103F500002D942680C3200E000225268126802293D
:103F600002D94468183400E0002464683CB1022996
:103F700002D94468183400E00024646824680229E7
:103F8000A1460BD9406810F1180F07D030F8181F60
:103F9000012903D9406810B1406800E00020059075
:103FA000D868D168D0F8048048680490D1E902014B
:103FB00048430790D9F81840002120680191C0F3C8
:103FC000C611C0F34155E940C0F3434006910428AF
:103FD00001D0082801D1E0680190D9F814004FF011
:103FE000000A40680390906985689869D0F808B025
:103FF000049805EB80079FED3B3A6DE0D9F8180077
:104000008468059810B18069866800E000260198F0
:10401000C8B958E016B1B6EC010A01E0B0EE430AA7
:104020008DED020A0698019A04285B46CDF80080BF
:10403000214602A80AD0FFF70DFB03989DED020A66
:104040000444A5EC010ABD42E4D33EE0FFF76CFA5C
:10405000F3E716B1F6EC010A01E0F0EE430A204660
:1040600059464246B0EE430A1BE000BF90ED001AED
:10407000D1ED001A01EE210A90ED011AD1ED011ADD
:1040800001EE210A90ED021AD1ED021A01EE210A89
:1040900090ED031AD1ED031A10301031121F01EE0A
:1040A000210A042AE2D206E0B0EC011A521EF1EC19
:1040B000011A01EE210A002AF6D1039830EE800A97
:1040C0000444A5EC010ABD42C3D304980BEB880B52
:1040D00007EB80070AF1010A07998A458ED308B0D9
:1040E000BDE8F08F0000000070B50546406901880A
:1040F00009B1426800E00022526832B109B1426859
:1041000000E000225268146800E00024012902D96E
:1041100042680C3200E00022526842B1012902D903
:1041200040680C3000E000204068066800E000268F
:10413000A86978B14068012804F1080016D0FFF79B
:1041400061FC0246A869A1698368B069BDE8704056
:1041500000F088BD04F10800FFF754FC0246A16995
:10416000B069BDE87040002300F05CBDFFF74AFC79
:104170000246A869A1698368B069BDE8704000F093
:10418000D1BD2DE9FC414069018809B1426800E0D8
:104190000022526832B109B1426800E00022526840
:1041A000146800E00024012902D942680C3200E0C2
:1041B0000022526842B1012902D940680C3000E067
:1041C00000204068056800E00025E0684668E8686F
:1041D000476804F10800FFF715FCCDE900670246C7
:1041E000A1693346A86900F0BFFDBDE8FC817047B6
:1041F00008B5002A06D00244521E009392B20B4624
:10420000FDF7D0FA08BD2DE9FF4F80460E4640F27B
:10421000C32050434FF47A71B0FBF1F702FB02F078
:1042200000EB520B14464FF6FF7000EA4202A8EB77
:10423000040080B231467F1C039BFFF7D9FF0125A4
:1042400038E005FB05F004FB040159451BD9BC42CD
:1042500018D96800A0F10209301981B2A8EB050055
:1042600000F1010A1FFA89F21FFA8AF0039BFFF797
:10427000BFFF301B81B21FFA89F21FFA8AF0039B3D
:10428000FFF7B6FF641E4FF6FF7000EA4402701994
:1042900081B2A8EB040A91461FFA8AF0039BFFF74C
:1042A000A7FF701B81B24A461FFA8AF0039BFFF7F3
:1042B0009FFF6D1CBD42C4D9BDE8FF8F2DE9F04FB3
:1042C000DFF80CB41F202DED0C8B89B04FF6FF7773
:1042D000002425465E46ABF80000FE4807803846BD
:1042E000FDF768F84FF47848A6F800803846FDF7E7
:1042F00061F8F948A246A6F800A001684FF010093D
:10430000CDE9009128216423A0220846FDF775FE1F
:10431000142142460846FEF7F7F8F04E86F814A03E
:104320009FEDEF0A4FF0010886ED060A9FEDED8B39
:104330009FEDEE9B9FEDEFABDFF8C0A3012000F0F7
:1043400071FE307DB8EB901F47D120F040003075F2
:1043500005A8318820F8241000EB8400641C002597
:104360007189E4B24180012C06D0022C11D0032CBB
:104370001FD0042C31D13FE014213A460846FEF705
:10438000C3F8BAF800004FF47842143880B2142110
:1043900021E0BAF800003A46143880B21421FEF742
:1043A000B3F8BAF802004FF47842143881B21420FE
:1043B00011E0BAF802003A46143881B21420FEF730
:1043C000A3F8BAF802004FF47842143881B2BAF870
:1043D0000000143880B2FEF797F80A20FCF756FA6E
:1043E0006D1CADB2B5F57A7FA8D9FEF7C5F809B056
:1043F000BDEC0C8BBDE8F08FBDF81400BDF81810B3
:10440000401A00D54042BDF81610BDF81A20891A8E
:1044100000D54942404301FB0100FBF7A5FF41ECF9
:10442000100BFEF729FB51EC100BFBF7AAFF84B22F
:10443000BDF81C00BDF82010411A00D54942BDF856
:104440001E00BDF82220801A00D540424943404357
:104450000844FBF789FF41EC100BFEF70DFB51EC14
:10446000100BFBF78EFF00EE104A80B20090F8EEC2
:10447000400A00EE100AB8EE401A80EE810A10EEF3
:10448000100AFBF797FF41EC1B0B53EC182BFBF7C3
:10449000A5FF5CD353EC192B51EC1B0BFBF7B6FFBC
:1044A00055D3E4B30098D0B3BDF81400BDF81C1088
:1044B000401A00D54042BDF81610BDF81E20891ADA
:1044C00000D54942404301FB0100FBF74DFF41ECA1
:1044D000100BFEF7D1FA51EC100BFBF752FF84B230
:1044E000BDF81800BDF82010411A00D54942BDF8AA
:1044F0001A00BDF82220801A00D5404249434043AB
:104500000844FBF731FF41EC100BFEF7B5FA51EC14
:10451000100BFBF736FF80B200EE104A00E016E009
:10452000F8EE400A00EE100AB8EE401A80EE810A5A
:1045300010EE100AFBF73EFFB0EE48CAF0EE68CA74
:1045400041EC1B0B53EC1C2BFBF748FF32D2BAF8A3
:104550000210BAF8000014391438002489B280B26D
:104560003A46FDF7D1FF14214FF478420846FDF793
:10457000CBFF53EC1A2B51EC1B0BFBF783FEFBF725
:1045800000FF80B2BDF82210BDF82030BDF81E201B
:10459000CDE90310CDE90123BDF81C000090BDF862
:1045A0001A30BDF81820BDF81610BDF81400FDF73C
:1045B000EFFEC3E6B0EE49DAF0EE69DA53EC1D2BFC
:1045C00051EC1B0BFBF722FFC1D3BDF81800BDF85F
:1045D0001C10411A00D54942BDF81A00BDF81E2032
:1045E000801A00D54042494340430844FBF7BCFED3
:1045F00041EC100BFEF740FA51EC100BFBF7C1FE3B
:1046000084B2BDF81400BDF82010401A00D5404215
:10461000BDF81610BDF82220891A00D54942404342
:1046200001FB0100FBF7A0FE41EC100BFEF724FAA2
:1046300051EC100BFBF7A5FE00EE104A80B2F8EE2D
:10464000400A00EE100AB8EE401A80EE810A10EE21
:10465000100AFBF7AFFE41EC1B0B53EC1C2BFBF7D6
:10466000BDFEB1D353EC1D2B51EC1B0BFBF7CEFE63
:10467000AAD3BDF81840BDF81430F6EE001AE01ABF
:1046800000EE100ABAF800005246B8EEC01AA0F1C7
:10469000280100EE101AE118B8EEC00AC0EE010AB7
:1046A00000EE101AB8EE401A00EE100AB8EE400AFA
:1046B000C6ED060A00EEC10A20EE210ABDEEC00AD0
:1046C00010EE101A3184BDF81E40BDF8163017E008
:1046D0000000002002000020986800083807002031
:1046E00000000000666666666666EE3FCDCCCCCC08
:1046F000CCCCF03F0000000000005940280700200B
:10470000E11A00EE101A51882344B8EEC01AA1F144
:10471000280C00EE10CAFDEEE00AB8EEC02A82EEC8
:10472000010A01EE103AB8EE412A01EE101AB8EE75
:10473000411A86ED070A00EE421A21EE211ABDEE5B
:10474000C11A11EE103A738410EE903A002B00DA81
:104750005B42022B08DCBDEEC00A10EE103A002BC3
:1047600000DA5B42022B2DDD14391438002489B2A3
:1047700080B23A46FDF7C8FE14214FF4784208464D
:10478000FDF7C2FE1DA1CDE90091BAF80230BAF8DA
:1047900000201A212820FDF730FC96F8240048B1AB
:1047A0005FF0000086F8240030B1194890210170B4
:1047B000D02105E00120F5E71548D02101709021B6
:1047C0004170BBE51F20ABF800003846FCF7F2FD56
:1047D00010A1CDE90091BAF80230BAF800206E219C
:1047E0002320FDF70AFC4FF47A70FCF74FF8FDF731
:1047F000CFFF3846FCF7DEFDF9E500005450204EAF
:1048000065656420726561646A75737421000000D7
:1048100004000020546F7563682053637265656EF1
:104820002041646A757374204F4B21002DE9FF4FBE
:104830004FF00008DDF834A0474650454FD35245AD
:104840004DD351454BD3534549D3161A5D1A0290A7
:1048500000914FF0FF30002E02DD4FF0010102E029
:1048600003D14FF000018B4602E08346C6F10006FB
:10487000002D02DD4FF0010002E003D14FF00000F7
:10488000019002E0C5F100050190AE4201DD344621
:1048900000E02C46601C4FF0000903901CE00098DB
:1048A000524681B202980E9B80B2FFF7ACFCB04436
:1048B0002F44A04505DD0299A8EB040801EB0B008D
:1048C0000290A74204DDDDE9000108443F1B00908F
:1048D00009F101001FFA80F903998945DFDDBDE880
:1048E000FF8F00000025ADF5016D2F462E46FCF729
:1048F00007F9FDF707FDFDF719FC874985480860B2
:104900000846FBF79DFFFDF7D1FBFDF761FCFCF7C7
:104910008FFF00F06DFB8149A8464FF01009A1F808
:1049200000807FA2CDE900294B46CDF80880C8223F
:104930000A211320FDF795FC7FA2CDE90029102361
:10494000CDF80880C8221E211320FDF78AFC80A222
:10495000CDE900291023CDF80880C8223221132088
:10496000FDF77FFCDFF8F4913820B9F80210B9F8B0
:1049700000C000EB510300EB5C02404200EB510130
:1049800000EB5C0089B280B2FCF72AFEDFF8D0B100
:104990004FF6FF7A002000F045FB9BF81400D84644
:1049A000000646D50120FBF771FFA1B2514507D1A2
:1049B000B8F80010B8F80A0061F30F0460F31F4460
:1049C0001F210220CDE90001C346B8F80A30B8F82B
:1049D0000020210CA0B2FFF729FFB8F80020B8F89A
:1049E0000A3062F30F0463F31F44B5F5007FD1D2A0
:1049F000ADB103A901EB8500DC4630F9028C984586
:104A0000C8D030F9043C9342C4D0BCF8002021F84F
:104A10002520BBF80A106D1C4180ADB2BAE7BBF887
:104A20000010ADF80C10BBF80A00ADF80E0001251F
:104A3000B0E77F1C6AF30F04FFB20A20FBF726FFE2
:104A4000282FA7D1002DA5D00095B9F80230B9F8CC
:104A50000020444903A8FDF7C5FB00254249414811
:104A6000FEF736FA9FED410A3F49002001EB800234
:104A7000D2ED000AF4EEC00AF1EE10FA02DDB0EE5B
:104A8000600A46B2401CC0B20A28EFD34FF444611A
:104A90003448FBF7DFFB28213348FBF7DBFB701CB6
:104AA0002CD04FF0100832A2CDE90028002102914D
:104AB0004346C82246211320FDF7D3FB012332468B
:104AC0004621B420CDF80080FDF75CFA4FF0FF36A8
:104AD000CDF800A0B9F80210372202EB5103B9F863
:104AE00000006FF0360C02EB50020CEB51010CEBA6
:104AF000500089B280B2FCF755FE4BE7102100222E
:104B00001FA08DE807000B46C82246211320FDF7A1
:104B1000A8FBDDE700300240D006002000000020A6
:104B200048616E6477726974696E67207265636F3D
:104B3000676E6974696F6E00507265747261696E38
:104B4000656420434E4E204D4E49535400000000F2
:104B500058696E205A68616F000000002807002025
:104B600038070020D00700201014002000000000AB
:104B7000476F74206974212049742069733A0000DA
:104B8000536F7272792C20492068617665206E6FB0
:104B900020696465613A0000884200D80846704781
:104BA00008691C490A6842F080420A601A4A0244B5
:104BB0008A60CA6010310A6842F080420A60174A6F
:104BC00002448A60CA6010310A6842F080420A607A
:104BD000134A02448A60CA6010310A6842F0804277
:104BE0000A6000F5A8628A60403ACA6001F11002CA
:104BF000116841F08041116000F590619160D160D1
:104C000002F110010A68886042F080420A60C860C0
:104C10000120704770030020B03604001027040004
:104C20008025040010B56FF0030303EB82038C684A
:104C30008068E2181844DFED0A0A0CE092ED000AE1
:104C4000B5EEC00AF1EE10FA01D2B0EE600A80EDC6
:104C5000000A001F121F8B689342EFD910BD00009D
:104C600000000000D3ED021A93ED000A93ED011A43
:104C70006FF00303F5EEC01A03EB82038A688068C5
:104C8000F1EE10FA1A44184445D2B5EEC01AF1EE0E
:104C900010FA10D113E000BFD2ED000AF4EEC00A02
:104CA000F1EE10FA03D270EEC00A60EE810AC0ED98
:104CB000000A001F121F8B689342EDD970479FEDC9
:104CC000181A0CE0D2ED000AF4EEC00AF1EE10FA68
:104CD00001D2F0EE410AC0ED000A001F121F8B68DE
:104CE0009342EFD9704700BFD2ED000AF4EEE10A1B
:104CF000F1EE10FA09D2F4EEC00AF1EE10FA06D283
:104D000070EEC00A60EE810A01E0F0EE610AC0EDCB
:104D1000000A001F121F8B689342E5D970470000FC
:104D20000000000010B5D3ED000A6FF0030303EBA1
:104D300082038C688068E21818449FED0A1A0CE020
:104D400092ED000AB4EEE00AF1EE10FA01D2B0EEF4
:104D5000410A80ED000A001F121F8B689342EFD9B1
:104D600010BD0000000000002DE9F04706468868ED
:104D70000C46DDE9089800EB8201B068A1EB8905DB
:104D800000EB82019A46A1EB88070BE0A5600023A7
:104D9000524621463046B76000F00CF8A5EB890575
:104DA000A7EB8807E068A842F0D9A060F068B0607F
:104DB000BDE8F0872DE9F04115462DED028B8E6898
:104DC0008768DFED1F8A96ED008A01200CE000BFA6
:104DD00006EB800191ED000AB4EEC80AF1EE10FA7C
:104DE00001D3B0EE408A401CA842F1D300240EE06B
:104DF00006EB840090ED000A30EE480AFDF748FD0E
:104E000007EB840070EE288A80ED000A641CAC4237
:104E1000EED3F7EE000A002080EEA80A09E000BFFA
:104E200007EB8001401CD1ED000A60EE800AC1ED65
:104E3000000AA842F4D3BDEC028BBDE8F08100006B
:104E4000000000002DE9FF4F83B0D0F80880DDE9B5
:104E500017B1DDE915E58868DDF850900090ABF1F9
:104E60000100139900FB0EF0411A1198129A0144A7
:104E70000598081A691E01FB09F18A1A1099401E4B
:104E80000A44049900B2511ADDE91242491E09B2DE
:104E900022439FED561A50D100294EDA00284CDAF1
:104EA000002145E0119801FB0E000FFA80FA002066
:104EB0003AE0109A002400FB092217B230E000BF4C
:104EC00001FB0EF216B200FB09F212B2B0EE410A7B
:104ED000019218E0019A12E0DDF810C006FB0C2CDC
:104EE00003FB0C4C08EB8C0CDCED000AF4EEC00A62
:104EF000F1EE10FA01D3B0EE600A521C12B2BA42BF
:104F0000EADB761C36B25645E4DB01FB050203FB07
:104F10000246009A641C02EB860224B282ED000A6B
:104F20009C42CDDB401C00B2A842C2DB491C09B246
:104F30005945B7DB07B0BDE8F08F002453E000BF50
:104F4000139904FB0EF0411A0291119800220844B3
:104F50000FFA80FA43E000BF129902FB09F0401AF1
:104F6000019010990026084407B234E00298F0EE50
:104F7000410A01B222E001981BE0002918DB002859
:104F800016DBDDF814C0614512DADDF810C06045AB
:104F90000EDA01FB0C0C03FB0C6C08EB8C0C9CED8B
:104FA000000AB4EEE00AF1EE10FA01D3F0EE400A86
:104FB000401C00B2B842E0DB491C09B25145DADBC3
:104FC00004FB052003FB00610098761C00EB8100C8
:104FD00036B2C0ED000A9E42C8DB521C12B2AA4291
:104FE000BADB641C24B25C45AADBA3E7000000CF57
:104FF0000B4910B5A1F10A00FDF778FBFBF729FB7F
:10500000FDF7BAFA08B1002010BD4FF6FF70FCF7AB
:10501000D1F9FFF753F9FDF7BBFBFDF7ADFAF2E766
:10502000420700202A4910B5D1F81412294C31B199
:10503000207D010640D520F08000207543E0254901
:105040000A310028234802D0FDF764FB2AE0FDF76F
:1050500061FB38B3B4F9200094ED061A00EE100A93
:10506000208800EE900AB8EEC00AF8EE600A01EE61
:10507000200ABCEEC00A10EE100A2080B4F922000B
:1050800094ED071A00EE100A608900EE900AB8EE5F
:10509000C00AF8EE600A01EE200ABCEEC00A10EE6B
:1050A000100A6081207D00060DD4C0202075208864
:1050B00020816089608206E00020208160824FF6B6
:1050C000FF7020806081207D00F0800010BD000016
:1050D00000004142380700200000000000000000EE
:1050E00000000000000000003F4000000000000041
:1050F00000003000400030004000000009000BC0FC
:105100003D000BC03D00090018C024407FE0224054
:1051100031800000180024C01B000D803240018047
:1051200003801C4027401C800740004010006000A6
:1051300000000000000000000000000000001F80D0
:10514000204040200000402020401F800000000040
:10515000090006001F80060009000000040004008A
:105160003F80040004000000001000600000000008
:10517000000000000400040004000400040000001B
:10518000000000400000000000000000002001C0FE
:1051900006003800400000001F80204020402040D2
:1051A0001F800000000010403FC0004000000000D1
:1051B00018C02140224024401840000010802040A8
:1051C000244024401B80000002000D0011003FC05D
:1051D000014000003C802440244024402380000003
:1051E0001F80244024403440038000003000200011
:1051F00027C03800200000001B80244024402440A9
:105200001B8000001C0022C0224022401F800000A2
:105210000000000008400000000000000000000046
:105220000460000000000000000004000A001100FB
:105230002080404009000900090009000900000021
:1052400000004040208011000A00040018002000E7
:1052500023402400180000001F80204027402940E0
:105260001F400000004007C039000F0001C000408F
:1052700020403FC0244024401B8000001F8020406D
:10528000204020403080000020403FC0204020408F
:105290001F80000020403FC024402E4030C000004E
:1052A00020403FC024402E00300000000F0010803E
:1052B000204022403380020020403FC00400040010
:1052C0003FC02040204020403FC020402040000000
:1052D0000060202020203FC02000200020403FC050
:1052E00024400B0030C0204020403FC02040004000
:1052F000004000C03FC03C0003C03C003FC0000075
:1053000020403FC00C4023003FC020001F802040B1
:10531000204020401F80000020403FC02440240047
:10532000180000001F802140214020E01FA0000045
:1053300020403FC02440260019C0004018C024402F
:105340002440224031800000300020403FC02040F7
:105350003000000020003F80004000403F802000DF
:1053600020003E0001C0070038002000380007C0C0
:105370003C0007C038000000204039C0060039C09A
:10538000204000002000384007C0384020000000C6
:10539000304021C02640384020C0000000000000FE
:1053A0007FE0402040200000000070000C000380DF
:1053B000004000000000402040207FE0000000008E
:1053C000000020004000200000000000001000103D
:1053D000001000100010001000000000400000004D
:1053E00000000000000002800540054003C00040AE
:1053F00020003FC004400440038000000000038000
:1054000004400440064000000000038004402440A3
:105410003FC00040000003800540054003400000FD
:10542000000004401FC0244024402000000002E08F
:10543000055005500650042020403FC004400400A1
:1054400003C000400000044027C0004000000000EE
:1054500000100010041027E00000000020403FC0B2
:105460000140070004C00440204020403FC00040ED
:105470000040000007C0040007C0040003C0000093
:10548000044007C00440040003C000400000038043
:105490000440044003800000041007F0045004405E
:1054A00003800000000003800440045007F0001057
:1054B000044007C002400400040000000000064051
:1054C0000540054004C00000000004001F800440A7
:1054D00000400000040007800040044007C0004076
:1054E0000400070004C0018006000400060001C09B
:1054F000070001C006000000044006C0010006C00D
:10550000044000000410071004E0018006000400BD
:105510000000044005C006400440000000000000F8
:1055200004007BE040200000000000000000FFF0CD
:1055300000000000000040207BE0040000000000AC
:1055400040008000400020002000400000000000DB
:10555000000000000000000000000000000000004B
:1055600000001FCC000C000000000000000008003C
:10557000300060000800300060000000022003FCE2
:105580001E20022003FC1E200220000000000E1836
:1055900011043FFF10840C78000000000F001084FD
:1055A0000F3800C0077818840078000000780F8456
:1055B00010C411240E9800E400840008080068005C
:1055C000700000000000000000000000000000006B
:1055D000000007E01818200440020000000040020C
:1055E0002004181807E000000000000002400240FC
:1055F00001800FF001800240024000000080008026
:1056000000800FF800800080008000000001000D85
:10561000000E0000000000000000000000000080FC
:105620000080008000800080008000800000000C6E
:10563000000C000000000000000000000000000658
:10564000001800600180060018002000000007F02C
:10565000080810041004080807F0000000000804FF
:1056600008041FFC000400040000000000000E0CF1
:1056700010141024104411840E0C000000000C18AB
:1056800010041104110412880C700000000000E0E6
:105690000320042408241FFC0024000000001F989D
:1056A000108411041104108810700000000007F02D
:1056B00008881104110418880070000000001C0004
:1056C000100010FC13001C001000000000000E3839
:1056D00011441084108411440E38000000000700AB
:1056E000088C10441044088807F0000000000000F7
:1056F0000000030C030C000000000000000000008C
:105700000001010600000000000000000000008011
:1057100001400220041008081004000002200220AA
:1057200002200220022002200220000000001004BB
:1057300008080410022001400080000000000E0054
:105740001200100C106C10800F00000003E00C1809
:1057500013E4142417C4082807D000000004003CF8
:1057600003C41C40074000E4001C000410041FFC9C
:105770001104110411040E880070000003E00C18DD
:1057800010041004100410081C10000010041FFC6A
:10579000100410041004080807F0000010041FFC97
:1057A0001104110417C410040818000010041FFC91
:1057B0001104110017C010000800000003E00C18CD
:1057C0001004100410441C780040000010041FFC5A
:1057D00010840080008010841FFC1004000010045E
:1057E00010041FFC1004100400000000000300015E
:1057F000100110011FFE10001000000010041FFC1B
:10580000110403801464181C1004000010041FFC11
:105810001004000400040004000C000010041FFC2D
:105820001F0000FC1F001FFC1004000010041FFCE0
:105830000C04030000E010181FFC100007F008081B
:10584000100410041004080807F0000010041FFCE6
:1058500010841080108010800F00000007F00818DE
:1058600010241024101C080A07F2000010041FFC6A
:105870001104110011C011300E0C000400000E1CA8
:1058800011041084108410441C380000180010000B
:1058900010041FFC100410001800000010001FF876
:1058A00010040004000410041FF8100010001E0073
:1058B00011E0001C007013801C0010001FC0103C81
:1058C00000E01F0000E0103C1FC000001004180C96
:1058D000163401C001C01634180C100410001C004E
:1058E000130400FC13041C00100000000804101C2A
:1058F0001064108413041C04101800000000000041
:1059000000007FFE40024002400200000000300024
:105910000C0003800060001C000300000000400237
:10592000400240027FFE0000000000000000000076
:105930002000400040004000200000000001000165
:105940000001000100010001000100010000400011
:10595000400020000000000000000000000000984F
:10596000012401440144014400FC000410001FFC18
:10597000008801040104008800700000000000702D
:105980000088010401040104008800000000007088
:1059900000880104010411081FFC0004000000F845
:1059A000014401440144014400C800000000010416
:1059B00001040FFC1104110411001800000000D6AE
:1059C00001290129012901C90106000010041FFC59
:1059D000008401000100010400FC00040000010437
:1059E000190419FC0004000400000000000000037A
:1059F00000010101190119FE0000000010041FFC44
:105A00000024004001B4010C010400000000100457
:105A100010041FFC0004000400000000010401FC4D
:105A20000104010001FC0104010000FC010401FC6F
:105A3000008401000100010400FC0004000000F8E3
:105A4000010401040104010400F80000010101FF48
:105A5000008501040104008800700000000000704F
:105A6000008801040104010501FF00010104010493
:105A700001FC00840104010001800000000000CC52
:105A800001240124012401240198000000000100E8
:105A9000010007F80104010400000000010001F802
:105AA000000400040004010801FC0004010001805E
:105AB0000170000C001001600180010001F0010C78
:105AC000003001C00030010C01F0010000000104B1
:105AD000018C00740170018C01040000010101813E
